:04000000B8EF03F062
:1000080000C015F0F2A209D0295206E1010E256EB2
:100018000A0E266E000E276EF292F0A009D0295221
:1000280006E1020E256E3C0E266E000E276EF0903D
:10003800F0A218D0800E000A006E800E2518005C11
:1000480010E229520EE1010E296E010E286E25508C
:10005800010A04E1310ECD6E9D8003D0840ED56E69
:10006800F28AF092F2A412D00B0ED76EDC0ED66E86
:10007800800E006E800E2718005C02E126500008F2
:1000880004E2010E265E000E275AF2949EA01FD0AD
:100098000B0ECF6EDC0ECE6E434A442A800E4418F7
:1000A800006E800E005C02E1040E435C0FE3436ABD
:1000B800446A800E006E800E2718005C02E126500C
:1000C800000804E2010E265E000E275A9E9015C015
:0400D80000F0110023
:0A00DC00210E0D6E0D2EFED712004E
:1000E6000F0E0C6E470E0D6E0D2EFED70C2EFCD786
:0600F600000000001200F2
:0600FC00000000001200EC
:1001020000019BBF02D08C9601D08C869BBD02D091
:100112008C9401D08C849BBB02D08C9201D08C82B7
:100122009BB902D08C9001D08C8078B102D08C889F
:1001320001D08C988C8AE1DF8C9A9BB702D08C9686
:1001420001D08C869BB502D08C9401D08C849BB359
:1001520002D08C9201D08C829BB102D08C9001D0C3
:100162008C8078B102D08C8801D08C988C8AC5DFC3
:0E0172008C9A78A102D0B6DF01D0AFDF120068
:0E018000000178919AC09BF0BCDF78811200DC
:10018E000134083609360450085E0550D8A0053CE7
:10019E00095E003601360F0E0C6E01340836093634
:1001AE00045000A006D0085E0550D8A0053C095E9C
:1001BE0005D008260550D8B0053C09260036013674
:1001CE000C2EEBD700B006D0045008260550D8B040
:0801DE00053C09260000120097
:0C01E6000E0E0D6E0D2EFED70000120054
:1001F2000450000A08E10550000A05E1FF0E006EF6
:100202007F0E016E57D00D6A096A086A015000100C
:10021200D8B4000C015005180A6E0ABE0D1E0B6AF6
:1002220005AE05D0041E051E042AD8B4052A01AE67
:1002320005D0001E011E002AD8B4012A0150051063
:100242000A6E0ABE10D0A2DF0BB020D00DAE000C99
:10025200001E011E002AD8B4012A081E091E082AFF
:10026200D8B4092A000C05AE0DD001BE07D001504A
:10027200096E0050086E016A006AE8D7016A006AD6
:10028200002A000C011E001E0B2ADDD7082AD8B452
:10029200092A0450085CD8A4D9D70550095CD8A40F
:1002A200D5D7096A086A002AD8B4012A01AECED786
:0602B2000000FF0C120029
:1002B800830EC21695C000F00036009000360090FC
:1002C8000050C2128CDFC282C2A201D0FDD7C4CFB7
:0E02D80001F0006AC3500012000E0112120065
:1002E600959A959895909592959495968C9A8C98C2
:1002F6008C968C948C928C90F3DEF2DEF1DE8C82FE
:100306008C808C8AF8DE8C9AEBDE8C8AF4DE8C9AF2
:10031600E7DE8C8AF0DE8C9AE3DE8C908C8AEBDE4C
:100326008C9ADEDE8C8AE7DE8C9A8C928C868C8A9E
:10033600E2DE8C9AD5DE8C968C808C8ADCDE8C9AFA
:100346008C908C8AD8DE8C9ACBDE8C8AD4DE8C9A02
:100356008C808C8AD0DE8C9AC3DE8C908C8ACBDE25
:100366008C9A8C868C848C828C808C8AC4DE8C9A47
:08037600B7DE000178811200DE
:10037E000900F5CFE6FF0006FBE10106F9E11200E8
:10038E00B80E0001796F020E7A6F950E7B6F000E1C
:10039E007C6FC26A421C006E0050C116070EC0125E
:0603AE00C08EC2801200A7
:1003B40010D0800E0001956F1AD0C00E956F17D023
:1003C400940E956F14D0D40E956F11D0800E956F46
:1003D4000ED000019551010AECE09551020AEDE0BE
:1003E4009551030AEDE09551040AEDE0EFD7960527
:1003F400006E9551002600C095F000C09BF07FDE92
:100404007891996B99519725E96E000E9821EA6EBF
:10041400EE520BE099519725E96E000E9821EA6E91
:0E042400EECF9AF0ABDE992BEDD77881120067
:100432000B6A0A6A096A086A0E6A033408360450AB
:10044200085E0550D8A0053C095E0650D8A0063CBF
:100452000A5E0750D8A0073C0B5EE86AD8A0010EDE
:100462000E5E0336070E0C6E0334083609360A3662
:100472000B360E36045003A012D0085E0550D8A0E9
:10048200053C095E0650D8A0063C0A5E0750D8A07B
:10049200073C0B5EE86AD8A0010E0E5E11D008265A
:1004A2000550D8B0053C09260650D8B0063C0A26AD
:1004B2000750D8B0073C0B26E86AD8B0010E0E26CA
:1004C20003360C2ED1D70234083609360A360B36DB
:1004D2000E36045003A012D0085E0550D8A0053C89
:1004E200095E0650D8A0063C0A5E0750D8A0073C19
:1004F2000B5EE86AD8A0010E0E5E11D008260550E8
:10050200D8B0053C09260650D8B0063C0A2607504A
:10051200D8B0073C0B26E86AD8B0010E0E26023688
:10052200070E0C6E0234083609360A360B360E36C2
:10053200045002A012D0085E0550D8A0053C095E06
:100542000650D8A0063C0A5E0750D8A0073C0B5EB6
:10055200E86AD8A0010E0E5E11D008260550D8B068
:10056200053C09260650D8B0063C0A260750D8B0EA
:10057200073C0B26E86AD8B0010E0E2602360C2E76
:10058200D1D70134083609360A360B360E360450F6
:1005920002A012D0085E0550D8A0053C095E0650A4
:1005A200D8A0063C0A5E0750D8A0073C0B5EE86A5A
:1005B200D8A0010E0E5E11D008260550D8B0053C19
:1005C20009260650D8B0063C0A260750D8B0073C88
:1005D2000B26E86AD8B0010E0E260136070E0C6E05
:1005E2000134083609360A360B360E36045001A09D
:1005F20012D0085E0550D8A0053C095E0650D8A06E
:10060200063C0A5E0750D8A0073C0B5EE86AD8A0F9
:10061200010E0E5E11D008260550D8B0053C092601
:100622000650D8B0063C0A260750D8B0073C0B2625
:10063200E86AD8B0010E0E2601360C2ED1D700344E
:10064200083609360A360B360E36045001A012D08F
:10065200085E0550D8A0053C095E0650D8A0063CAD
:100662000A5E0750D8A0073C0B5EE86AD8A0010ECC
:100672000E5E11D008260550D8B0053C092606505A
:10068200D8B0063C0A260750D8B0073C0B26E86AC9
:10069200D8B0010E0E260036070E0C6E0034083656
:1006A20009360A360B360E36045000A012D0085E08
:1006B2000550D8A0053C095E0650D8A0063C0A5E4B
:1006C2000750D8A0073C0B5EE86AD8A0010E0E5E68
:1006D20011D008260550D8B0053C09260650D8B0DE
:1006E200063C0A260750D8B0073C0B26E86AD8B069
:1006F200010E0E2600360C2ED1D700B00ED00450BB
:1007020008260550D8B0053C09260650D8B0063C4C
:0C0712000A260750D8B0073C0B26120046
:10071E00220E0C6E086A096A0A6A0B6A0C06D8B4B5
:10072E001FD0D8900B320A3209320832033202320D
:10073E0001320032D8A0F2D70C06D8B409D004503A
:10074E0008260550092206500A2207500B22EAD726
:10075E00045008260550092206500A2207500B2283
:02076E00120077
:100770005CEC05F0FF0E926EFF0E936E94908290EB
:10078000F18CF18AF188F288F086F088F28EF28C92
:10079000AADD010E9B6FB5DC0C0E9B6FB2DCF7DDA2
:1007A0003B0EC16E2850010A04E1010E9B6FA9DCCB
:1007B000286A2952D8B415D1956B7EDD000E026EE1
:1007C000036EE80E046E030E056E000E066E076ED5
:1007D000A6DFFF0E046E030E056E000E066E076E9A
:1007E00028DE00C07DF001C07EF002C07FF003C0B3
:1007F00080F0000E035C08E1000E025C05E1030ED0
:10080000015C02E1E80E005C0CE3310E0001816F37
:10081000300E826F300E836F2E0E846F300E856F18
:1008200061D00001640E046E000E056E066E076E48
:100830007DC000F07EC001F07FC002F080C003F0F8
:10084000F8DD0A0E046E000E056E066E076EF1DD11
:1008500008C000F009C001F00AC002F00BC003F0AC
:10086000300E002600C081F00A0E046E000E056EE8
:10087000066E076E7DC000F07EC001F07FC002F002
:1008800080C003F0D6DD0A0E046E000E056E066E03
:10089000076ECFDD08C000F009C001F00AC002F009
:1008A0000BC003F0300E0024826F2E0E836F0A0EF1
:1008B000046E000E056E066E076E7DC000F07EC0F1
:1008C00001F07FC002F080C003F0B3DD08C000F08B
:1008D00009C001F00AC002F00BC003F0300E002482
:1008E000846F856BDF0E866F430E876F886B010EFA
:1008F000956F010E966F2A0E976F000E986F5ADD56
:10090000010E956F070E966F810E976F000E986F10
:1009100051DD000E805D08E1000E7F5D05E1020EF5
:100920007E5D02E1580E7D5D02E282800DD0805135
:10093000000808E17F51000805E17E51030802E14B
:100940007D512008D8A082900A0E046E000E056E1C
:1009500026C000F027C001F04CDC300E002600C09D
:100960008BF00A0E046E000E056E26C000F027C044
:1009700001F03FDC08C000F009C001F0300E002497
:1009800000018C6F730E8D6F8E6B020E956F010ED2
:10099000966F160E976F000E986F0CDD020E956F16
:1009A000080E966F8B0E976F000E986F03DD020E88
:1009B000956F0B0E966F1E0E976F000E986FFADCF8
:1009C000800E006E800E2718005C02E126500008A1
:1009D00007E3296A256A8290F29A9D90010E286E9B
:1009E0002CD0010E956F010E966F310E976F000E91
:1009F000986FE0DC2550010A0AE1020E956F010EA6
:100A0000966F450E976F000E986FD4DC16D0255068
:100A1000020A0AE1020E956F010E966F560E976F4D
:100A2000000E986FC7DC09D0020E956F010E966F0D
:100A3000670E976F000E986FBDDC030E0B6E080EED
:100A40000C6E770E0D6E0D2EFED70C2EFCD70B2ED6
:060A5000FAD7A8D6FFD77B
:100AB80010EE16F0620E006E010E016E560EF66E06
:0E0AC8000A0EF76E000EF86EBFEC01F0120081
:080A560054656D706F3A200039
:070A5E0020202020202000D1
:010A65000090
:020A660000008E
:010A6800008D
:010A6900008C
:070A6A0054656D703A200095
:100A710053656C6563696F6E652074656D706F3A5F
:010A81000074
:010A82003043
:020A8300000071
:100A8500437572746F3A2031307320202020202066
:010A95000060
:100A96004C6F6E676F3A203630732020202020205E
:010AA600004F
:100AA700202020202020202020202020202020203F
:010AB700003E
:020000040030CA
:0E000000000C1F1EFF8381FF0FC00FE00F409A
:00000001FF
